S016000070726F6A6563745F335F736166652E7372656387
S11300000C942A000C9447000C9447000C9447006D
S11300100C9447000C9447000C9447000C94470040
S11300200C9447000C9447000C9447000C94470030
S11300300C9447000C9447000C9447000C94470020
S11300400C9447000C9447000C9447000C94470010
S11300500C94470011241FBECFE5D8E0DEBFCDBF0E
S113006010E0A0E6B0E0ECE5F0E102C005900D92EE
S1130070A03FB107D9F710E0A0EFB0E001C01D9296
S1130080A53FB107E1F70E94DC040C942C080C9402
S1130090000040E00E945A000895442321F40E9485
S11300A07C01982F05C00E947C0191E0811190E0B1
S11300B0892F0895843409F471C0853448F4823456
S11300C099F1833408F04DC0813409F083C00FC026
S11300D0823651F1833620F4813609F07BC007C0A3
S11300E0833609F43EC0843609F074C057C04130E9
S11300F069F42AB381E090E0AC0102C0440F551FBB
S11301006A95E2F7BA01622B6ABB08952AB381E0CB
S113011090E0AC0102C0440F551F6A95E2F7BA01A2
S1130120609562236ABB0895413069F427B381E086
S113013090E0AC0102C0440F551F6A95E2F7BA0182
S1130140622B67BB089527B381E090E0AC0102C045
S1130150440F551F6A95E2F7BA016095622367BBA5
S11301600895413069F424B381E090E0AC0102C009
S1130170440F551F6A95E2F7BA01622B64BB0895D8
S113018024B381E090E0AC0102C0440F551F6A958E
S1130190E2F7BA016095622364BB0895413069F4C3
S11301A021B381E090E0AC0102C0440F551F6A9571
S11301B0E2F7BA01622B61BB089521B381E090E0BC
S11301C0AC0102C0440F551F6A95E2F7BA0160956D
S11301D0622361BB0895843409F471C0853448F402
S11301E0823499F1833408F04DC0813409F083C01E
S11301F00FC0823651F1833620F4813609F07BC07A
S113020007C0833609F43EC0843609F074C057C071
S1130210413069F42BB381E090E0AC0102C0440F9B
S1130220551F6A95E2F7BA01622B6BBB08952BB395
S113023081E090E0AC0102C0440F551F6A95E2F7DB
S1130240BA01609562236BBB0895413069F428B309
S113025081E090E0AC0102C0440F551F6A95E2F7BB
S1130260BA01622B68BB089528B381E090E0AC0129
S113027002C0440F551F6A95E2F7BA0160956223E4
S113028068BB0895413069F425B381E090E0AC0186
S113029002C0440F551F6A95E2F7BA01622B65BB91
S11302A0089525B381E090E0AC0102C0440F551FCE
S11302B06A95E2F7BA016095622365BB08954130FF
S11302C069F422B381E090E0AC0102C0440F551FF1
S11302D06A95E2F7BA01622B62BB089522B381E00A
S11302E090E0AC0102C0440F551F6A95E2F7BA01D1
S11302F06095622362BB0895843409F44EC085344A
S113030040F4823431F18334B0F5813409F057C0BC
S11303100EC08236F1F0833620F4813609F04FC0E6
S113032006C0833641F1843609F049C036C029B38A
S113033081E090E0062E02C0880F991F0A94E2F72C
S113034030E08223932302C0959587956A95E2F75E
S1130350089526B381E090E0062E02C0880F991F0D
S11303600A94E2F730E08223932302C0959587959F
S11303706A95E2F7089523B381E090E0062E02C067
S1130380880F991F0A94E2F730E08223932302C076
S1130390959587956A95E2F7089520B381E090E0FA
S11303A0062E02C0880F991F0A94E2F730E08223D8
S11303B0932302C0959587956A95E2F7089580E0A6
S11303C00895843409F43DC0853440F48234F9F04E
S11303D0833450F5813409F040C00CC08236B9F042
S11303E0833618F48136C9F505C08336E9F08436BE
S11303F0A1F527C02BB381E090E0AC0102C0440F0B
S1130400551F6A95E2F7BA0162276BBB089528B3BA
S113041081E090E0AC0102C0440F551F6A95E2F7F9
S1130420BA01622768BB089525B381E090E0AC016E
S113043002C0440F551F6A95E2F7BA01622765BBF3
S1130440089522B381E090E0AC0102C0440F551F2F
S11304506A95E2F7BA01622762BB08958434D9F041
S1130460853438F4823499F0833498F48134A1F4D7
S11304700CC0823661F0833618F4813669F405C005
S1130480833639F0843641F406C06ABB089567BBED
S1130490089564BB089561BB08958434D9F085340C
S11304A038F4823499F0833498F48134A1F40CC084
S11304B0823661F0833618F4813669F405C08336D8
S11304C039F0843641F406C06BBB089568BB0895C7
S11304D065BB089562BB08958434D9F0853438F43B
S11304E0823499F0833498F48134A9F40CC08236B0
S11304F061F0833618F4813671F405C0833639F01F
S1130500843649F406C089B3089586B3089583B345
S1130510089580B3089580E00895843409F1853402
S113052038F48234A9F08334B8F48134E1F40CC093
S1130530823671F0833618F48136A9F405C0833607
S113054059F0843681F40CC08BB380958BBB08952D
S113055088B3809588BB089585B3809585BB08953D
S113056082B3809582BB0895843409F471C08534C4
S113057048F4823499F1833408F04DC0813409F091
S113058083C00FC0823651F1833620F4813609F0DE
S11305907BC007C0833609F43EC0843609F074C0BA
S11305A057C0413069F42BB381E090E0AC0102C044
S11305B0440F551F6A95E2F7BA01622B6BBB08958D
S11305C02BB381E090E0AC0102C0440F551F6A9543
S11305D0E2F7BA01609562236BBB0895413069F478
S11305E028B381E090E0AC0102C0440F551F6A9526
S11305F0E2F7BA01622B68BB089528B381E090E06A
S1130600AC0102C0440F551F6A95E2F7BA01609528
S1130610622368BB0895413069F425B381E090E01A
S1130620AC0102C0440F551F6A95E2F7BA01622B70
S113063065BB089525B381E090E0AC0102C0440F8E
S1130640551F6A95E2F7BA016095622365BB089568
S1130650413069F422B381E090E0AC0102C0440F60
S1130660551F6A95E2F7BA01622B62BB089522B363
S113067081E090E0AC0102C0440F551F6A95E2F797
S1130680BA016095622362BB0895CF92DF92EF9224
S1130690FF920F931F93CF93DF93082F162F65308C
S11306A028F5862F8C5F681708F5C0E0D0E0EE24AB
S11306B0FF24E394C42EDD246C2F610FC7010C2E9C
S11306C002C0880F991F0A94E2F78C219D219C0196
S11306D00C2E02C0359527950A94E2F7A901802FC4
S11306E00E94EB002196C430D10531F7DF91CF9100
S11306F01F910F91FF90EF90DF90CF9008958EBBE4
S11307009FBB6DBBF894E29AE19A7894E199FECF8D
S113071008958EBB9FBBE09A8DB3089583E660E095
S113072041E00E945A0083E661E041E00E945A00E1
S113073083E662E041E00E945A0083E663E041E020
S11307400E945A0083E664E040E00E945A0083E677
S113075065E040E00E945A0083E666E040E00E94C3
S11307605A0083E667E040E00E945A0083E664E0B2
S113077041E00E94B40283E665E041E00E94B402D5
S113078083E666E041E00E94B40283E667E041E06C
S11307900E94B40208950F931F93CF93DF93CDB7B4
S11307A0DEB760970FB6F894DEBF0FBECDBFDE0193
S11307B01196E0E6F0E080E101900D928150E1F7BE
S11307C000E083E660E04FE00E94450383E6602F8B
S11307D040E00E94EB0010E0612F6C5F83E60E9412
S11307E07C01882361F4E02FF0E0EE0FFF1FEE0F91
S11307F0FF1FE10FF11DEC0FFD1F818104C01F5F7E
S1130800143051F70BC060960FB6F894DEBF0FBEDC
S1130810CDBFDF91CF911F910F9108950F5F0430E9
S113082081F68FEFF0CF82E461E041E00E94EB00BB
S113083080E792E00197F1F700C0000082E461E0F4
S113084040E00E94EB0080E792E00197F1F700C0DE
S113085000000895CF93C82F82E462E040E00E9434
S1130860EB0082E460E041E00E94EB004C2F4295F3
S11308704F7081E464E00E9445030E94130481E404
S113088064E04C2F0E9445030E941304CF91089505
S1130890CF93C82F82E462E040E00E94EB0082E440
S11308A060E040E00E94EB004C2F42954F7081E4E1
S11308B064E00E9445030E94130481E464E04C2F29
S11308C00E9445030E94130483EF91E00197F1F71E
S11308D000C00000CF910895CF93DF93EC0188818D
S11308E0882331F021960E942A0489918823D9F71C
S11308F0DF91CF910895982F9150923080F4662320
S113090089F0613190F4813029F4862F90E0815888
S11309109F4F0DC0862F90E081549F4F08C080E800
S113092090E005C080E890E002C080E890E00E947A
S11309304804089581E00E94480483EC99E00197FB
S1130940F1F700C00000089582E00E94480483EC9F
S113095099E00197F1F700C000000895CF9383E276
S113096094EF0197F1F700C00000C4E081E46C2F1C
S113097041E00E945A00CF5FC830C1F782E462E0D0
S113098041E00E945A0082E460E041E00E945A0083
S113099082E461E041E00E945A000E94A40488E2DB
S11309A00E9448048EE00E9448040E949A0486E053
S11309B00E944804CF9108950E94AE040E948E03C1
S11309C082E667E00E94490081E660E00E944900F7
S11309D060E070E084E393E40E9442060F2EF1EF9E
S11309E0CF2EF0E0DF2EF02D0F2EFAE7AF2EF0E041
S11309F0BF2EF02DDC2DFD2C0F2EFFEA8F2EF0E004
S1130A009F2EF02D0F2EFAEB6F2EF0E07F2EF02D9F
S1130A100F2EF8EC4F2EF0E05F2EF02D80E290E0E8
S1130A200E9489038F3F61F580E790E00E946C0487
S1130A3001E210E00E94CB03C82F8F3FD9F30E943C
S1130A402A048FE996E8A1E081509040A040E1F7A4
S1130A5000C00000602F675181E00E947B048AE29D
S1130A600E942A04C8016C2F0E947F030F5F1F4F4E
S1130A7005321105F9F680E290E060E00E947F0300
S1130A800E949A040F2EF2EE2F2EF0E03F2EF02D4E
S1130A90C3C0C5010E946C040D2F1F2DCCE00E9421
S1130AA0CB038F3FE1F30E94CB03D8018D938D01DB
S1130AB00E942A048FE996E8A1E081509040A0406A
S1130AC0E1F700C0000081E06C2F0E947B048AE201
S1130AD00E942A04CF5FC03111F7D601CC9181E284
S1130AE090E00E948903C81709F04DC0E2EFF0E0DE
S1130AF0C08182E290E00E948903C81709F043C0D4
S1130B00A3EFB0E0CC9183E290E00E948903C81780
S1130B10D1F5E4EFF0E0C08184E290E00E94890323
S1130B20C81789F560E070E0CB010E9442060E947C
S1130B309A0486E890E00E946C0482E061E00E94DE
S1130B407B0483E990E00E946C048FE39DE0A3E0C2
S1130B5081509040A040E1F700C000000E949A0438
S1130B6080EA90E00E946C048FE392E4AFE081504D
S1130B709040A040E1F700C000000E949A0481E088
S1130B808093F00049C00E949A04C4010E946C043E
S1130B9082E061E00E947B04C3010E946C048FE345
S1130BA09DE0A3E081509040A040E1F700C0000028
S1130BB00E949A04C2010E946C048091EE00805D40
S1130BC00E942A048FE39DE0A3E081509040A0405E
S1130BD0E1F700C000000E949A048091EE00815069
S1130BE08093EE008823C1F40E949A0486ED90E07D
S1130BF00E946C0482E061E00E947B04C1010E94B7
S1130C006C048FE392E4AFE081509040A040E1F7A0
S1130C1000C000000E949A048091F000882309F427
S1130C2038CF82E667E040E00E944D00813099F4BD
S1130C3080E290E06FEF0E947F031092F00060E08A
S1130C4070E084E393E40E944206A3E2B4EF1197B8
S1130C50F1F700C0000081E660E040E00E944D0032
S1130C60813009F0DBCE60E070E084E393E40E941D
S1130C7042061092F000E3E2F4EF3197F1F700C07E
S1130C800000CCCE0E9445060895CF92DF92EF92E9
S1130C90FF920F931F93CF93DF9320EC3BE046EB3F
S1130CA05BE30E94C90720E030E040E85FE30E9474
S1130CB0BC06D82FC92F062F172FD82EC92E862F42
S1130CC0912FAD2FBC2FBC01CD0120E030E040E8D6
S1130CD05FE30E9420071816ACF4802F912FAD2FEC
S1130CE0BC2FBC01CD0120E030E040E050E40E9484
S1130CF0C50788238CF000E010E0DD24CC24689440
S1130D00C6F80AC000E010E00F2EF0E8DF2EF02D48
S1130D100F2EFFE3CF2EF02D8D9A8FB582608FBDFD
S1130D208EB588608EBD8EB580618EBD8EB58160B6
S1130D308EBD8FB580688FBD8FE19EE497BD86BD63
S1130D40802F912FAD2DBC2DBC01CD0120E030E0D2
S1130D504AE754E40E94C9070E942407DC01CB013E
S1130D609BBD8ABDDF91CF911F910F91FF90EF90B2
S1130D70DF90CF9008955058BB27AA270ED0CBC040
S1130D80BCD030F0C1D020F031F49F3F11F41EF4F8
S1130D90B1C00EF4E095E7FBA7C0E92FCDD080F3F6
S1130DA0BA17620773078407950718F071F49EF564
S1130DB0E5C00EF4E0950B2EBA2FA02D0B01B9015E
S1130DC090010C01CA01A0011124FF27591B99F0BD
S1130DD0593F50F4503E68F11A16F040A22F232FC9
S1130DE0342F4427585FF3CF469537952795A79519
S1130DF0F0405395C9F77EF41F16BA0B620B730BC0
S1130E00840BBAF09150A1F0FF0FBB1F661F771F30
S1130E10881FC2F70EC0BA0F621F731F841F48F4E5
S1130E20879577956795B795F7959E3F08F0B3CF6B
S1130E309395880F08F09927EE0F97958795089555
S1130E402FD008F481E008957FD088F09F5790F068
S1130E50B92F9927B751A0F0D1F0660F771F881FDB
S1130E60991F1AF0BA95C9F712C0B13081F086D033
S1130E70B1E0089583C0672F782F8827B85F39F0D1
S1130E80B93FCCF3869577956795B395D9F73EF43A
S1130E9090958095709561957F4F8F4F9F4F0895E2
S1130EA0990F0008550FAA0BE0E8FEEF1616170677
S1130EB0E807F907C0F012161306E407F50798F0DF
S1130EC0621B730B840B950B39F40A2661F0232BF8
S1130ED0242B252B21F408950A2609F4A140A69574
S1130EE08FEF811D811D089597F99F6780E870E059
S1130EF060E008959FEF80EC089500240A9416168C
S1130F00170618060906089500240A9412161306F3
S1130F10140605060895092E0394000C11F4882381
S1130F2052F0BB0F40F4BF2B11F460FF04C06F5F9D
S1130F307F4F8F4F9F4F089557FD9058440F551F73
S1130F4059F05F3F71F04795880F97FB991F61F047
S1130F509F3F79F087950895121613061406551FBE
S1130F60F2CF4695F1DF08C0161617061806991F2A
S1130F70F1CF86957105610508940895E894BB271F
S1130F8066277727CB0197F908958ADF08F48FEF56
S1130F9008950BD0C0CFB1DF28F0B6DF18F0952349
S1130FA009F0A2CFA7CF1124EACFC6DFA0F3959F03
S1130FB0D1F3950F50E0551F629FF001729FBB273C
S1130FC0F00DB11D639FAA27F00DB11DAA1F649FE8
S1130FD06627B00DA11D661F829F2227B00DA11D9B
S1130FE0621F739FB00DA11D621F839FA00D611D21
S1130FF0221F749F3327A00D611D231F849F600D42
S1131000211D822F762F6A2F11249F5750408AF07A
S1131010E1F088234AF0EE0FFF1FBB1F661F771F06
S1131020881F91505040A9F79E3F510570F05CCF46
S1131030A6CF5F3FECF3983EDCF3869577956795F2
S1131040B795F795E7959F5FC1F7FE2B880F911D24
S10F10509695879597F90895F894FFCFC2
S113105C3738392F3435362A3132332D41303D2B44
S113106C73657420706173733A00636865636B20F5
S113107C706173733A00636F72726563742070618C
S113108C73730073616665206973206F70656E00FD
S113109C436C6F73652074686520736166650077B3
S11310AC726F6E672070617373007361666520697B
S11310BC7320636C6F7365007472696573206E754D
S11310CC6D6265723A00436C6F736564205361669C
S11310DC6500776169742035206D696E73000300B7
S9030000FC
